:020000040800F2
:1000000098060020CD0100087B04000815040008B4
:100010007904000819030008E9070008000000003F
:100020000000000000000000000000008D05000836
:100030001B03000800000000E10400083906000866
:10004000E7010008E7010008E7010008E7010008F0
:10005000E7010008E7010008E7010008E7010008E0
:10006000E7010008E7010008E7010008E7010008D0
:10007000E7010008E7010008E7010008E7010008C0
:10008000E7010008E7010008E7010008E7010008B0
:10009000E7010008E7010008E7010008E7010008A0
:1000A000E7010008E7010008E7010008E701000890
:1000B000E7010008E7010008E7010008E701000880
:1000C000E7010008E7010008E7010008E701000870
:1000D000E70100088D060008E7010008E7010008B5
:1000E000E7010008E7010008E7010008E701000850
:1000F000E7010008E7010008E7010008E701000840
:10010000E7010008E7010008E7010008E70100082F
:10011000E7010008E7010008E7010008E70100081F
:10012000E7010008E7010008E7010008E70100080F
:1001300000F002F800F03AF80AA090E8000C8244BF
:100140008344AAF10107DA4501D100F02FF8AFF29C
:10015000090EBAE80F0013F0010F18BFFB1A43F0A5
:10016000010318470808000028080000103A24BFBF
:1001700078C878C1FAD8520724BF30C830C144BF0C
:1001800004680C607047000000230024002500264E
:10019000103A28BF78C1FBD8520728BF30C148BFEA
:1001A0000B6070471FB51FBD10B510BD00F06EF895
:1001B0001146FFF7F7FF00F049FB00F0A0F803B489
:1001C000FFF7F2FF03BC00F010FB00000948804776
:1001D00009480047FEE7FEE7FEE7FEE7FEE7FEE729
:1001E000FEE7FEE7FEE7FEE704480549054A064B41
:1001F000704700003D06000831010008980000200B
:100200009806002098020020980200207047000005
:100210000FB4044910B503AA029800F009F810BC05
:100220005DF814FB1400002070477047704770475A
:10023000074B70B50D467B4400F011F80446284684
:1002400000F020F810B14FF0FF3070BD204670BDB7
:10025000FB05000001694A1C02610878704700B57F
:100260008FB0CDE901310021059105497944CDE9EF
:1002700003101146684600F02EF80FB000BD0000D4
:10028000E5FFFFFF007B00F080007047754600F03F
:100290003FF8AE4605006946534620F00700854604
:1002A00018B020B5FFF7A0FFBDE820404FF00006D2
:1002B0004FF000074FF000084FF0000B21F007014E
:1002C000AC46ACE8C009ACE8C009ACE8C009ACE891
:1002D000C0098D4670472DE9F04106460024D6E955
:1002E0000170F5688046304603E04146B847641C1B
:1002F0003046A8470028F8D12046BDE8F08110B567
:100300000446AFF300802046BDE81040FFF757BF1A
:100310000048704734000020FEE77047F0B5CA7807
:10032000002502F00F03D20601D58A7813430A781C
:100330004FF00F0E12F0FF0F4FF001021CD00468B7
:100340000F8802FA05F63740B74211D14FEA850C03
:100350000EFA0CF724EA070703FA0CF43C43CF78B3
:10036000282F02D0482F02D002E0466100E006614B
:100370006D1C082DE4D304600C88FF2C1ED9446842
:100380005FF0000606F1080702FA07F50F882F4014
:10039000AF420FD14FEA860C0EFA0CF7BC4303FABA
:1003A0000CF73C43CF78282F00D14561CF78482FF8
:1003B00000D10561761C082EE4D34460F0BD416194
:1003C00070470161704700000E48002101600E4A2D
:1003D0000E4B1268B2FBF3F343604FF47A70B2FB3A
:1003E000F0F0B0F1807F0CD220F07F424FF0E0209F
:1003F000521E4261064BF02283F8142D81610721C1
:1004000001617047180000200000002040420F00EA
:100410000FE000E0FEE70000F8B50121082000F041
:1004200061F80121402000F05DF810248DF80340B0
:1004300020250F4FADF8005003268DF80260694665
:100440003846FFF76BFF20213846FFF7BAFF8DF8DB
:100450000340084CADF800508DF802606946204614
:10046000FFF75CFF20212046FFF7ABFFF8BD00003F
:10047000000C014000180140FEE7704770B50F23E3
:10048000C47801780122F4B1144C2468457804F44E
:10049000E064C4F5E064240AC4F10406E34084780F
:1004A000B5401C402C4301F1E021230181F80034C8
:1004B000007800F01F018A404009800000F1E02030
:1004C000C0F8002170BD01F01F0082404809800083
:1004D00000F1E020C0F8802170BD00000CED00E0CC
:1004E00070470000044A0029916901D0014300E0EF
:1004F00081439161704700000010024030B51F49F0
:100500004A6812F00C031E4A03D0042B01D0082BBA
:1005100021D002604A680F231A4C03EA1212A35C2E
:100520000268DA4042604B68072505EA1323E35C62
:1005300022FA03F383604B6805EAD323E35CDA40D5
:10054000C2604968032303EA9131231F595CB2FB5F
:10055000F1F1016130BD4A684B6802F470124FF04E
:10056000020413F4803F04EB924202D04B689B03D9
:1005700001D5054B00E0024B5A43CAE70010024088
:1005800000127A002400002000093D00704700009E
:100590000CB50021264801910091026842F4803296
:1005A00002604FF4A063026802F400320092019AE4
:1005B000521C0192009A12B9019A9A42F3D1026830
:1005C000920333D5012100911A490A6842F01002C2
:1005D0000A600A6822F003020A600A6842F0020216
:1005E0000A604168416041684160416841F480614E
:1005F0004160416821F47C114160416841F4E81197
:100600004160016841F08071016001688901FCD599
:10061000416821F003014160416841F002014160FD
:100620004168C1F381010229FAD10CBD00910CBDD2
:100630000010024000200240704700000F4810B533
:10064000016841F00101016041680D4A11404160BB
:1006500001680C4A11400160016821F480210160A9
:10066000416821F4FE0141604FF41F018160FFF7F2
:100670008FFF05494FF00060086010BD0010024078
:100680000000FFF8FFFFF6FE08ED00E010B5074C94
:1006900040F22551204600F015F8002804D02046ED
:1006A000BDE8104000F09CB810BD000000380140CB
:1006B0000029818902D041F4005101E021F4005168
:1006C0008181704730B501F01F0201240025C1F37C
:1006D000421304FA02F2012B0FD0022B0FD0838AAF
:1006E0004FEA11210088134204FA01F400EA0400E1
:1006F00001D000B10125284630BD8389F0E7038A87
:10070000EEE710B5C1F3421301F01F040121A1402F
:10071000012B07D0022B07D01430002A026805D025
:100720000A4304E00C30F8E71030F6E78A43026031
:1007300010BD000030B50446008A85B00D464CF669
:10074000FF710840E98801432182A1894EF6F31028
:100750000140A8882A8910436A890A431043A0816E
:10076000A08A4FF6FF410840A9890143A18268464B
:10077000FFF7C4FE1948844201D1039800E00298B3
:10078000A189090400EBC00101EB0010296801D523
:10079000490000E08900B0FBF1F06422B0FBF2F107
:1007A00009010B096FF018056B4300EB8300A38967
:1007B0001D044FF0320306D503EBC000B0FBF2F08E
:1007C00000F0070005E003EB0010B0FBF2F000F0D2
:1007D0000F000843208105B030BD00000038014003
:1007E0008088C0F308007047FEE7704708B5ADF891
:1007F00000108DF802308DF803206946FFF78EFD5A
:1008000008BD00EB4001C1EBC0104FF0FF3101EB20
:10081000C00000F001B80000022808D30449401EBF
:10082000496848430C21B0FBF1F0401EFDD27047EF
:100830001800002004490A885206FCD5024AC1B2B9
:10084000121D11807047000000380140FFF7BCFD09
:100850001A4800F041F8FFF7DFFD194C032310227E
:1008600080212046FFF7C2FF6420FFF7CAFF15A0D2
:10087000FFF7CEFC164D174E4FF4967720212846F1
:10088000FFF79FFD20213046FFF79BFD802120468A
:10089000FFF797FD3846FFF7B4FF80212046FFF7AA
:1008A0008EFD20212846FFF78AFD20213046FFF7E4
:1008B00086FD3846FFF7A5FFE0E7000080841E00B4
:1008C00000080140706F776572206F6E0A000000AB
:1008D000000C01400018014030B50446012185B0EC
:1008E0008803FFF7FFFD01210420FFF7FBFD1D4DED
:1008F000032318224FF400712846FFF777FF0422E4
:10090000032311022846FFF771FF25208DF8100000
:1009100003208DF811008DF8120001208DF81300CE
:1009200004A8FFF7ABFD0020ADF804000094ADF87B
:100930000600ADF80800ADF80C000C200A4CADF82C
:100940000A0069462046FFF7F5FE012240F22551D4
:100950002046FFF7D6FE01212046FFF7A9FE05B08D
:1009600030BD000000080140003801408C0900083B
:1009700000000020340000006C010008C0090008DD
:1009800034000020640600008801000800A24A0428
:10099000000000000000000001020304060708092F
:1009A0000000000000000000000000000204060833
:1009B0000000000001020304010203040607080905
:0400000508000131BD
:00000001FF
