:020000040800F2
:10000000A0060020DD010008270D0008C10C000833
:10001000250D0008B106000895100008000000003A
:10002000000000000000000000000000390E000881
:100030007D090008000000008D0D0008E50E000895
:10004000F7010008F7010008F7010008F7010008B0
:10005000F7010008F7010008F7010008F7010008A0
:10006000F7010008F7010008F7010008F701000890
:10007000F7010008F7010008F7010008F701000880
:10008000F7010008F7010008F7010008F701000870
:10009000F7010008F7010008F7010008F701000860
:1000A000F7010008F7010008F7010008F701000850
:1000B000F7010008F7010008F7010008F701000840
:1000C000F7010008F7010008F7010008F701000830
:1000D000F7010008390F0008F7010008F7010008D0
:1000E000F7010008F7010008F7010008F701000810
:1000F000F7010008F7010008F7010008F701000800
:10010000F7010008F7010008F7010008F7010008EF
:10011000F7010008F7010008F7010008F7010008DF
:10012000F7010008F7010008F7010008F7010008CF
:1001300000F002F800F042F80AA090E8000C8244B7
:100140008344AAF10107DA4501D100F037F8AFF294
:10015000090EBAE80F0013F0010F18BFFB1A43F0A5
:10016000010318476412000084120000103A24BFF3
:1001700078C878C1FAD8520724BF30C830C144BF0C
:1001800004680C607047000000230024002500264E
:10019000103A28BF78C1FBD8520728BF30C148BFEA
:1001A0000B607047642900F09780732900F01B8270
:1001B000002070471FB51FBD10B510BD00F046FAF6
:1001C0001146FFF7F7FF01F02DF800F064FA03B4D1
:1001D000FFF7F2FF03BC00F072FF00000948804700
:1001E00009480047FEE7FEE7FEE7FEE7FEE7FEE719
:1001F000FEE7FEE7FEE7FEE704480549054A064B31
:1002000070470000E90E000831010008A00000203E
:10021000A0060020A0020020A002002070470000DD
:100220000FB4044910B503AA029800F0E1F910BC1C
:100230005DF814FB2000002070B504468569006855
:10024000C10601D5302600E02026C00707D070BDCA
:10025000D4E9012130469047206A401C20626D1E7F
:10026000F6D570BD70B5044685690078C00707D122
:1002700070BDD4E9012120209047206A401C2062F3
:100280006D1EF6D570BD70B50C460546012A05D029
:100290002878800600D5EA69002302E0012305E002
:1002A0005B1C934202D2E05C0028F9D1A869E618F1
:1002B000C01AA861286A184428622846FFF7BCFFC4
:1002C00004E0D5E9012114F8010B9047B442F8D3BA
:1002D0002846FFF7C7FF70BD2DE9F0410646002410
:1002E00010687529314616A510D0AFF3008000289C
:1002F00002DA404213A507E031688A0701D512A54A
:1003000002E0490704D511A5012401E0AFF3008004
:1003100000210A2206F1240709E0B0FBF2FCB0FB41
:10032000F2F302FB1C00303078541846491C0028B8
:10033000F3D123462A463046BDE8F04100F0E8B844
:10034000000000002D0000002B0000002000000035
:100350002DE9F05F894604464FF0000ADFF824B12A
:10036000FB44C0F820A02046E168884700287DD0E3
:10037000252806D0D4E901219047206A401C20623C
:10038000F1E700255F462046E168884720280646B9
:1003900007DB312E05D2B81910F8200C08B105433F
:1003A000F1E7A80701D525F00405C4F81CA0002733
:1003B000C4F818A02A2E09D0304600F079FE38B3D0
:1003C00004EB8708303EC8F8186019E059F8041BA0
:1003D000204604EB87029161E1688847012F0646B9
:1003E00018D1E069002820DA25F020051DE0D8F8B2
:1003F000180000EB800006EB40003038C8F8180009
:100400002046E1688847064600F052FE0028EED1FB
:10041000012F0AD02E2E08D12046E16888477F1C84
:100420000646022F45F02005C4DBA069002803DA48
:10043000404245F00105A061E80701D025F0100514
:10044000A6B1A6F14100192802D8203645F400656E
:100450004A463146204625604D46FFF7A3FE60B16F
:10046000012807D0ED1D25F0070000E007E000F1AE
:10047000080978E705F1040975E730467AE7206A4C
:10048000BDE8F09F521000004FF0013C50F8042BE3
:1004900051F8043B9A4221D1A2EB0C03934313EA97
:1004A000CC1317D150F8042B51F8043B9A4215D1C4
:1004B000A2EB0C03934313EACC130BD150F8042B9B
:1004C00051F8043B9A4209D1A2EB0C03934313EA7F
:1004D000CC13DBD04FF00000704700BFD01A01BA38
:1004E000B1FA81F101F0180122FA01F0CB40C1F11B
:1004F0002001DBB2C0B2C01A2CFA01F3D11A914329
:1005000011EAC311E6D170477047704770477047D2
:100510002DE9F0470D4699469246044600F124081D
:100520000168880604D5E06921F01001216000E02F
:100530000120A84201DD471B00E00027A1697A19CC
:1005400002EB0900081AA0612078C00602D42046F8
:10055000FFF772FE002608E0D4E901211AF8060030
:100560009047206A401C761C20624E45F4DB2078C0
:10057000C0060AD52046FFF75FFE06E0D4E9012158
:1005800030209047206A401C2062381EA7F10107E6
:10059000F4DC07E0D4E9012118F805009047206A4F
:1005A000401C2062281EA5F10105F3DC2046FFF760
:1005B00059FE2078000602D50220BDE8F087012010
:1005C000FBE710B5436913B1AFF3008001E0FFF71B
:1005D0005AFE012010BD127800F124010A70002299
:1005E0004A700122EDE711684FF0FF32E9E70000A1
:1005F000074B70B50D467B4400F011F804462846C1
:1006000000F020F810B14FF0FF3070BD204670BDF3
:100610000F0B000001694A1C02610878704700B5A1
:100620008FB0CDE901310021059105497944CDE92B
:10063000031011466846FFF78BFE0FB000BD0000A7
:10064000E5FFFFFF007B00F080007047754600F07B
:100650002BF8AE4605006946534620F00700854654
:1006600018B020B5FFF7C8FDBDE820404FF00006E8
:100670004FF000074FF000084FF0000B21F007018A
:10068000AC46ACE8C009ACE8C009ACE8C009ACE8CD
:10069000C0098D46704710B50446AFF30080204670
:1006A000BDE81040FFF793BD0048704740000020B0
:1006B000FEE7000070B5124C0221204600F0B8F9A8
:1006C0001022104E550103232946304600F0F8FC55
:1006D000052000F00BFD2946304600F0A9F9052061
:1006E00000F004FD0221204600F0A4F9052000F0EE
:1006F000FDFC2046BDE87040022100F099B90000E1
:10070000000C0140001C014070B50121882000F060
:100710003FFB0C4C032310220221204600F0D0FCAA
:100720000221204600F086F91022074D54010323D0
:100730002146284600F0C4FC21462846BDE870400A
:1007400000F078B9000C0140001C014070B5124C5B
:100750000221204600F06CF91022104E55010323AF
:100760002946304600F0ACFC052000F0BFFC2946CD
:10077000304600F05FF9052000F0B8FC0221204669
:1007800000F058F9052000F0B1FC2046BDE87040AB
:10079000022100F04DB90000000C0140001C014096
:1007A0002DE9F047194F80464FF4007600240323CB
:1007B00048223146384600F083FC1E2000F096FCAB
:1007C000B146134E00250221304600F031F90520D4
:1007D00000F08CFC0221304600F02CF96006040E7B
:1007E0004946384600F01DF908B1641CE4B26D1C9E
:1007F000EDB2082DE7D3B8F1000F04D0FFF75AFF90
:100800002046BDE8F087FFF7A1FFF9E7001C014093
:10081000000C01402DE9F0471022DFF86480054606
:10082000570103233946404600F04AFC154E022189
:10083000304600F0FDF8052000F058FCB9460024D1
:10084000474628064946384602D500F0F3F801E04D
:1008500000F0EEF86806050E0221304600F0EAF8D6
:10086000052000F043FC0221304600F0E1F80520AD
:1008700000F03CFC641CE4B2082CE2D3BDE8F08735
:10088000001C0140000C014070B510220F4D5401B6
:1008900003232146284600F013FC2146284600F099
:1008A000C9F80B4E0221304600F0C4F81E2000F0BB
:1008B0001DFC2146284600F0BBF8052000F016FC80
:1008C0003046BDE87040022100F0B2B8001C014083
:1008D000000C014070B510220D4D54010323214638
:1008E000284600F0EDFB02210A4800F0A3F81E2084
:1008F00000F0FCFB2146284600F09AF8052000F0A5
:10090000F5FB21462846BDE8704000F093B8000092
:10091000001C0140000C01402DE9F041154D4FF441
:1009200000760024032348223146284600F0C8FB05
:100930003146284600F07EF80F4F0221384600F07D
:1009400079F808E0641CE4B2FA2C04D9FFF7C2FF7E
:100950000120BDE8F081052000F0C8FB31462846A3
:1009600000F05FF80028EDD10221384600F060F871
:100970000020EEE7001C0140000C01407047000021
:10098000F0B5CA78002502F00F03D20601D58A78A7
:1009900013430A784FF00F0E12F0FF0F4FF00102D1
:1009A0001CD004680F8802FA05F63740B74211D10F
:1009B0004FEA850C0EFA0CF724EA070703FA0CF449
:1009C0003C43CF78282F02D0482F02D002E0466166
:1009D00000E006616D1C082DE4D304600C88FF2C38
:1009E0001ED944685FF0000606F1080702FA07F511
:1009F0000F882F40AF420FD14FEA860C0EFA0CF74A
:100A0000BC4303FA0CF73C43CF78282F00D1456153
:100A1000CF78482F00D10561761C082EE4D34460BE
:100A2000F0BD0246002092680A4200D001207047C3
:100A300041617047016170477CB50121802000F061
:100A4000A7F91022384ED40103232146304600F086
:100A500037FB21463046FFF7EDFF651003234822A0
:100A60002946304600F02CFB29463046FFF7E2FFCE
:100A7000FFF74AFE21463046FFF7DAFF0A2000F072
:100A80002AFB21463046FFF7D5FF0A2000F023FB62
:100A9000032328222946304600F012FB294630461F
:100AA000FFF7C6FF642000F016FB0422694648F2F7
:100AB000401000F04FF800248DF8044069461BA058
:100AC000FFF7AEFB1CA16846FFF7DEFC38B103233D
:100AD00048222946304600F0F3FA01207CBD02206E
:100AE0008DF8000048F2400501226946284600F0D2
:100AF00089F801226946E81D00F02CF89DF80010E5
:100B0000602905D20EA0FFF78BFB012000F052F800
:100B10000A2000F0E0FA8DF80040012269462846DC
:100B200000F070F800207CBD001C014043545020B0
:100B300049443A25730D0A0039313437000000006A
:100B400044656661756C74205665723A25640D0AB9
:100B5000000000002DE9F04115460E460446FFF75F
:100B600093FE2820FFF756FEFFF7D6FE200AFFF778
:100B700051FEFFF7D1FEE0B2FFF74CFEFFF7CCFECF
:100B8000FFF782FE2920FFF745FEFFF7C5FE002490
:100B90006F1E09E0BC4201D0012000E00020FFF7F9
:100BA000FFFD3055641CE4B2AC42F3D3BDE8F04124
:100BB000FFF790BE08B500218DF800108DF80100F8
:100BC0000F4800BF435C9DF80020491C1A44C9B27D
:100BD0008DF80020B829F5D3D0B2C043401C8DF861
:100BE0000000B822064948F2470000F00BF8022244
:100BF000694648F2FF0000F005F8002008BD00003B
:100C0000F41200082DE9F04116460F46044600256F
:100C1000FFF73AFE2820FFF7FDFDFFF77DFE200AD3
:100C2000FFF7F8FDFFF778FEE0B2FFF7F3FDFFF7FF
:100C300073FE002408E0385DFFF7ECFDFFF76CFE63
:100C4000050003D1641CE4B2B442F4D3FFF742FEC2
:100C50002846BDE8F08100000148006870470000A8
:100C60002400002002480168491C01607047000010
:100C7000240000200E48002101600E4A0E4B12682D
:100C8000B2FBF3F343604FF47A70B2FBF0F0B0F1D3
:100C9000807F0CD220F07F424FF0E020521E426154
:100CA000064BF02283F8142D816107210161704702
:100CB000240000200C00002040420F000FE000E064
:100CC000FEE70000F8B50121082000F061F80121DD
:100CD000402000F05DF810248DF8034020250F4FD0
:100CE000ADF8005003268DF8026069463846FFF7DC
:100CF00047FE20213846FFF79DFE8DF80340084C43
:100D0000ADF800508DF8026069462046FFF738FEC6
:100D100020212046FFF78EFEF8BD0000000C0140A8
:100D200000180140FEE7704770B50F23C4780178C2
:100D30000122F4B1144C2468457804F4E064C4F54D
:100D4000E064240AC4F10406E3408478B5401C4002
:100D50002C4301F1E021230181F80034007800F0F8
:100D60001F018A404009800000F1E020C0F8002106
:100D700070BD01F01F0082404809800000F1E020B2
:100D8000C0F8802170BD00000CED00E0704700004D
:100D9000044A0029916901D0014300E08143916137
:100DA000704700000010024030B51F494A6812F039
:100DB0000C031E4A03D0042B01D0082B21D0026063
:100DC0004A680F231A4C03EA1212A35C0268DA4045
:100DD00042604B68072505EA1323E35C22FA03F31C
:100DE00083604B6805EAD323E35CDA40C26049685C
:100DF000032303EA9131231F595CB2FBF1F1016136
:100E000030BD4A684B6802F470124FF0020413F4CC
:100E1000803F04EB924202D04B689B0301D5054B07
:100E200000E0024B5A43CAE70010024000127A0069
:100E30003000002000093D00704700000CB5002183
:100E4000264801910091026842F4803202604FF41A
:100E5000A063026802F400320092019A521C0192CF
:100E6000009A12B9019A9A42F3D10268920333D5DB
:100E7000012100911A490A6842F010020A600A68CA
:100E800022F003020A600A6842F002020A60416826
:100E9000416041684160416841F48061416041685E
:100EA00021F47C114160416841F4E811416001681E
:100EB00041F08071016001688901FCD5416821F031
:100EC00003014160416841F0020141604168C1F3A2
:100ED00081010229FAD10CBD00910CBD0010024025
:100EE00000200240FFF7BEBE0F4810B5016841F078
:100EF0000101016041680D4A1140416001680C4ADE
:100F000011400160016821F480210160416821F4F1
:100F1000FE0141604FF41F018160FFF78FFF05491B
:100F20004FF00060086010BD001002400000FFF8A4
:100F3000FFFFF6FE08ED00E010B5074C40F225512A
:100F4000204600F015F8002804D02046BDE81040E7
:100F500000F09CB810BD00000038014000298189D4
:100F600002D041F4005101E021F400518181704729
:100F700030B501F01F0201240025C1F3421304FA29
:100F800002F2012B0FD0022B0FD0838A4FEA1121DE
:100F90000088134204FA01F400EA040001D000B111
:100FA0000125284630BD8389F0E7038AEEE710B5B6
:100FB000C1F3421301F01F040121A140012B07D00E
:100FC000022B07D01430002A026805D00A4304E03F
:100FD0000C30F8E71030F6E78A43026010BD0000DD
:100FE00030B50446008A85B00D464CF6FF710840C6
:100FF000E98801432182A1894EF6F3100140A888B7
:101000002A8910436A890A431043A081A08A4FF6B7
:10101000FF410840A9890143A1826846FFF7C4FE49
:101020001948844201D1039800E00298A18909047B
:1010300000EBC00101EB0010296801D5490000E078
:101040008900B0FBF1F06422B0FBF2F109010B0959
:101050006FF018056B4300EB8300A3891D044FF06C
:10106000320306D503EBC000B0FBF2F000F007003E
:1010700005E003EB0010B0FBF2F000F00F000843B6
:10108000208105B030BD0000003801408088C0F3E9
:1010900008007047FEE7000004490968814201D357
:1010A000081A7047C043084470470000240000201D
:1010B00030380A2801D2012070470020704770475D
:1010C00008B5ADF800108DF802308DF803206946A0
:1010D000FFF756FC08BD00EB4001C1EBC0104FF01C
:1010E000FF3101EBC00000F001B80000022808D376
:1010F0000449401E496848430C21B0FBF1F0401EF2
:10110000FDD270472400002004490A885206FCD50D
:10111000024AC1B2121D1180704700000038014020
:101120002DE9FF4100268DF808608DF80C603446EB
:101130004FF4806120480196FFF773FC002838D0F7
:1011400048F24E17012202A93846FFF703FD9DF829
:10115000080000F00F05000608D5062D06D28DF810
:101160000C60012203A93846FFF74CFD681E0528D4
:101170001FD2124E1BE000BF36F81400042201A952
:10118000FFF7E8FC9DF804009DF80510009500EBC2
:10119000012082B29DF806009DF8071000EB0120A7
:1011A00083B2214606A0FFF73BF8641CE4B2AC42D0
:1011B000E2D3BDE8FF810000001C0140AC13000831
:1011C00025642C783D253033642C793D25303364FB
:1011D0002C6E756D3D25640A0000000070B50F4C43
:1011E000208828B16068FFF757FFB0F5FA7F10D369
:1011F0000A4D01262D1F0A48297800294FF02001A9
:1012000008D0FFF717FC002028702680FFF724FD88
:10121000606070BDFFF70CFC2E70F6E70400002044
:10122000000C0140FFF726FD094800F019F8FFF710
:1012300049FD6420FFF74FFF06A0FEF7F1FFFFF71F
:10124000FBFB00BFFFF7CAFFFFF76AFFFAE70000EA
:1012500080841E00706F776572206F6E0A00000038
:1012600030B50446012185B08803FFF791FD0121C7
:101270000420FFF78DFD1D4D032318224FF400714C
:101280002846FFF71DFF0422032311022846FFF71B
:1012900017FF25208DF8100003208DF811008DF820
:1012A000120001208DF8130004A8FFF73DFD002077
:1012B000ADF804000094ADF80600ADF80800ADF8F4
:1012C0000C000C200A4CADF80A0069462046FFF7D6
:1012D00087FE012240F225512046FFF768FE0121DA
:1012E0002046FFF73BFE05B030BD0000000801407E
:1012F0000038014060E001200305350002081E08A7
:10130000503C0F050000FF67500000181A1E14899A
:10131000280A302EBB0A03000002331D0000000023
:101320000000003200002A1C5A94C5020700000089
:10133000B51F00902800773200623F0052500052E3
:10134000000000000000000000000000000000009D
:10135000000000000000000F0F03061042F80F14F9
:10136000000000001A18161412100E0C0A080000D3
:10137000000000000000000000000000000000006D
:10138000000029282422201F1E1D0E0C0A08060515
:10139000040200FF0000000000000000000000FF49
:1013A000FFFFFFFFFFFFFFFFFFFFFFFF508158819F
:1013B0006081688170810400000800000000000066
:1013C0000002000100001000E813000800000020E7
:1013D000400000006C0100082814000840000020B4
:1013E0006006000088010008000000000000000006
:1013F0000000000000A24A040000000000000000FD
:1014000001020304060708090000000000000000B4
:1014100000000000020406080000000001020304AE
:0814200001020304060708099C
:0400000508000131BD
:00000001FF
